:020000040800F2
:1000000000500020B14F0008F94F0008213B0008C4
:10001000273B00082D3B0008333B00080000000090
:10002000000000000000000000000000710B00084C
:10003000F94F000800000000DD0B0008ED0B000880
:10004000F94F0008F94F0008F94F0008F94F000870
:10005000F94F0008F94F0008F94F0008F94F000860
:10006000F94F0008F94F0008F94F0008F94F000850
:10007000F94F0008F94F0008F94F0008F94F000840
:10008000F94F0008F94F0008F94F0008E552000841
:10009000DD510008F94F0008E9520008F94F000847
:1000A000F94F0008F94F0008F94F0008F94F000810
:1000B000F94F0008F94F0008F94F0008F94F000800
:1000C000F94F0008F94F0008F94F0008F94F0008F0
:1000D000F94F0008F94F0008F94F0008F94F0008E0
:1000E000F94F0008F94F0008F94F00080000000020
:1000F0000000000000000000000000000000000000
:1001000000000000000000005FF808F110B5054C89
:10011000237833B9044B13B10448AFF300800123B3
:10012000237010BD200300200000000004AC000874
:1001300008B5034B1BB103490348AFF3008008BD6A
:10014000000000002403002004AC0008A3F5803A5E
:10015000704700BF174B002B08BF134B9D46FFF79E
:10016000F5FF00218B460F461348144A121A07F078
:10017000B1FE0E4B002B00D098470D4B002B00D04A
:1001800098470020002104000D000D48002802D0EF
:100190000C4804F0F3FB07F0FBFD2000290002F0FF
:1001A00009F904F0E7FD00BF0000080000000000AE
:1001B000112300080050002020030020D029002037
:1001C0007D49000800000000024A136801331360F3
:1001D000704700BF7C08002010B5044602F02CFADE
:1001E000204610BD10B50446044B036003F024F90B
:1001F000204603F0A7F9204610BD00BFBC990008B7
:1002000010B5044602F0F6FE204610BD03681847FC
:10021000004870472004002000212DE9F04389B0F8
:10022000CDE9051101234FF47A7000213C4ECDE950
:1002300002013C4A86F82B303B4B0092049304ABFE
:100240003A4807920ECB03F020F9394800F034FB0E
:100250004FF07E58DFF8D890364B35481B68C9F808
:100260009C3300F015FC324800F04AFB304800F0A7
:10027000FEFB08F00DFD05462D4800F0FBFB08F0E5
:1002800007FD07462A4800F0EFFB08F001FD414654
:100290000446284608F048FC08F014FF414605468D
:1002A000384608F041FC08F00DFF4146074620465D
:1002B00008F03AFC08F006FF04461D4800F0D1FBA8
:1002C000A8B16FF03F039D42B8BF1D46402DA8BFA7
:1002D00040259F42B8BF1F466FF01F03402FA8BFA5
:1002E00040279C42B8BF1C46202CA8BF2024304683
:1002F00029B200F064F9304639B200F069F93046AD
:1003000021B200F06EF905220121304600F052F9C9
:100310000028A1D06421304600F0A8F89CE700BF77
:10032000200900200D020008C9010008E008002093
:100330004C0900207C08002073B52F4D13230F2299
:100340000821284600F056F9284601252B4C2C4E52
:1003500022462C4904F010FB40F2192300951D227F
:100360001C21304600F0FEF93046274E2246274930
:1003700004F002FB304603F0ABF822463046244935
:1003800004F0FAFA234B1C221846234E002107F0F2
:10039000A1FD2D2103F05AF94FF4E1331722162164
:1003A000304602F01BFB30461C4E22461C4904F02E
:1003B000E3FA1C4B0C220B21304602F07BFC224658
:1003C0003046194904F0D8FA2946184D184A1948F8
:1003D00000F042F84FF416531B221A21284602F06F
:1003E000FDFA0023224628461349C5F89C3302B083
:1003F000BDE8704004F0C0BA80080020F000002082
:100400008007002001020008E00800203D040008E9
:10041000E5010008600800203C0300207806002069
:100420003926000820A10700B12D00084C09002042
:100430007C08002020090020D901000810B50446DE
:10044000A43003F099F804F1540002F0E1FC201DFF
:1004500002F0DEFC204610BD10B501240482002409
:10046000817780F82B40C26010BD0000C36810B5D2
:100470001B68826804469B1A8B428AB02DD990F87B
:10048000282090F82030C2F340110991C2F30011E6
:100490000891C2F3C0010791C2F380010691C2F333
:1004A000400102F0010205910492B0F92620039266
:1004B000B0F924200292B0F922200192C3F3400245
:1004C000009290F91E2090F91F1003F001030448D8
:1004D00003F0B4FEE3681B68A3600AB010BD00BF60
:1004E0003094000890F8202010B50B0602F00104AB
:1004F00043EAC453C2F3400243EA825390F82820EF
:10050000848C02F0010143EA4153C2F3400143EA03
:100510000153C2F3800143EAC143C2F3C00143EA7D
:100520008143C2F3001143EA4143C2F34012418CBC
:1005300043EA0243C28C88B042EA04420B43CDE94D
:10054000022390F91E3010460399049305AB83E80B
:1005500003000823009304AB0ECB044802F0D6FB43
:10056000003818BF012008B010BD00BF7806002079
:1005700038B590F82B50044635B1012380F82A3065
:10058000BDE83840FFF7AEBF90F82A200AB9002036
:1005900038BDC177FFF7A6FF0028F8D094F91130D5
:1005A00094F910209A42C7BF0133637484F82A502B
:1005B0006574EDE7C26812680260FFF7D9BFB0F951
:1005C00022308B421EBF0123418480F82A307047BD
:1005D000B0F924308B421EBF0123818480F82A3079
:1005E0007047B0F926308B421EBF0123C18480F8CA
:1005F0002A307047F8B504461C2716461D4602F0FF
:10060000DBFC04F124033A461846002107F062FCA3
:10061000314603F01BF804F140033A461846002126
:1006200007F058FC294603F011F82046074902F06C
:1006300090FC2046002102F07FFC236B626A20467A
:100640001A60226CE36C1A60F8BD00BF6F12033AA7
:1006500010B40168D0E90132541001EB6200D207F6
:1006600048BF0A5910BC48BFD358184738B504468C
:10067000043002F00DFC23780546012B13D104F160
:10068000540002F005FC237840EA4500C4F8C80095
:10069000002B39D1D4F8C430032B0ED188B1D4F853
:1006A000CC30013B10E0D4F8A8301A68D4F8A4305C
:1006B0001A4214BF01200020E5E7002BEFD10328E8
:1006C000EDD1D4F8CC300133C4F8CC30D4F8DC30E0
:1006D0000133072BC4F8DC3013DD164AD4F8D810E8
:1006E000536A526A5B1AC4F8D8200022C4F8DC208E
:1006F000D4F8CC20C4F8D430002ABCBF5B42C4F884
:10070000D430C4F8C40038BD012BDFD1D4F8C430D4
:1007100080EA0302032AD9D09842D7D083EA600343
:1007200013F0010308BF4FF0FF33D4F8CC20D31AE5
:10073000CAE700BF0008004010B586B0044668460E
:1007400080E80C0006A800E90C00039110E90700FE
:1007500084E807002046024BE36006B010BD00BFEE
:10076000510600082DE9F04F0446154695B09DF856
:10077000787000F104084046994604F1540602F0EE
:1007800065FB012F0CBF29464FF0FF31304602F0C8
:100790005DFB002F18BF4FF0FF3504F1A4031C22AE
:1007A0001846002107F096FB294602F048FF002377
:1007B0004046C4F8CC30C4F8DC30C4F8D030C4F8BB
:1007C000C090277002F064FB23780546012B5CD1B2
:1007D000304602F05DFB4FF00009DFF8C4A040EAAC
:1007E00045000DF1100BCDF840A0CDF8449010ADB0
:1007F00095E80C002146C4E931005846FFF79CFFFC
:10080000079B404600939BE80E0002F049FBCDE9B0
:1008100010A90DF1200B95E80C0021465846FFF772
:100820008BFF0B9B404600939BE80E0002F055FBAC
:10083000012F1ED1CDE910A90CAF95E80C0021467F
:100840003846FFF779FF0F9B3046009397E80E007C
:1008500002F026FB4B46524621462846CDE902A926
:10086000FFF76AFF139B3046009395E80E0002F0F5
:1008700034FB6FF000432046C4F8D430094B5B6A68
:10088000C4F8D83015B0BDE8F08FD4F8A8301A6895
:10089000D4F8A4301A4214BF012000209BE700BF07
:1008A0006D0600080008004008B5036801211B6CB4
:1008B000984700F0010008BD70B50023002501260F
:1008C0000446C0F88433C0F88833C0F88C334FF442
:1008D0006131C0E9D155C0E9D355C0F8405380F823
:1008E000606380F89053C0F8945301F0E5FE3346FE
:1008F0002A460821204601F0E1FE84F8985370BD95
:1009000090F85C3303F0010280F86523C3F34002E2
:1009100080F86623C3F3800280F86823C3F3C00223
:1009200080F86723C3F3001280F86323C3F34012F7
:1009300080F86223C3F38012DB0980F8613390F8FA
:100940005D3380F8642303F0010280F86A23C3F367
:10095000400280F86C23C3F3800280F86923C3F35C
:10096000C00280F86B23C3F3001280F86D23C3F339
:100970004012C3F3801380F86F33D0F8543380F8FB
:100980006E23642BC9BF90F87E33002383F00103EC
:1009900080F87C33CBBF012380F87E3380F87E3330
:1009A00080F87C33D0F85833642BC9BF90F87F337C
:1009B000002383F0010380F87D33CBBF012380F84F
:1009C0007F3380F87F3380F87D3390F85E3303F017
:1009D000010280F87423C3F3400280F87523C3F347
:1009E000800280F87723C3F3C00280F87623C3F334
:1009F000001280F87223C3F3401280F87123C3F30E
:100A00008012DB0980F8703390F85F3380F873232D
:100A100003F0010280F87923C3F3400280F87B23BE
:100A2000C3F3800280F87823C3F3C00280F87A23EE
:100A3000C3F3001280F88023C3F34012C3F3801382
:100A400080F8812380F8823370470023C0E9D133D6
:100A5000C0E9D333C0E9D533A0F87C33C0F85C33A8
:100A6000704790F86A037047D0F84C037047D0F88D
:100A700044037047D0F84803704707B501220DF1D1
:100A8000070101F0D3FF9DF8070003B05DF804FBF8
:100A90002DE9F843002504462E464FF00C0800F1DE
:100AA000E4073846FFF700FF814600285CD0002DA0
:100AB0005AD12046FFF7E1FFD4F840330C2B4FD832
:100AC000DFE803F0070D181C2024282C30353A3FAE
:100AD00045008828E5D10123C4F84033E1E7082820
:100AE00001D10223F8E72046C4F84063FFF7ADFFC9
:100AF0004D46D6E7032384F85C03EDE7042384F82E
:100B00005D03E9E7052384F85E03E5E7062384F83F
:100B10005F03E1E70723C4F85403DDE70823C4F8C3
:100B20005803D9E740B20923C4F84C03D4E740B2D4
:100B30000A23C4F85003CFE740B20B23C4F84403A0
:100B4000CAE740B2C4F84803C4F84083A9E71828AC
:100B500003D12046FFF7D4FE4D46C4F84063A0E71A
:100B60002046FFF772FF9CE70120BDE8F8830000F4
:100B70001EF0040F0CBFEFF30880EFF309808169CA
:100B800011F8021C00291BD101B590E80F10E047B5
:100B9000BDE800508CE80300184B93E80600914232
:100BA00008BF70471A6019B12CE9F00FC1F838C0BE
:100BB000906B6FF0020EB0E8F00F80F30988704779
:100BC0000F4A13689942FAD801B552F821C00FC8EC
:100BD000E047BDE80050CCF80000704701B500F0D8
:100BE00027FFBDE80140EFF3098CD5E701B500F020
:100BF000E3FEBDE80140EFF3098CCDE708010020DA
:100C000074950008014608B530B96FF0030000F094
:100C10002AF86FF0030008BD132001F03BFA30B949
:100C20004FF0FF3000F01FF84FF0FF30F3E70020E7
:100C3000F1E7000008B5EFF305832BB9EFF310835C
:100C400013B9EFF3118333B16FF0050000F00BF827
:100C50006FF0050008BDDFF808C000DFFAE700BF4D
:100C6000050C000870477047EFF310832BB9EFF3C2
:100C70001180003818BF0120704701207047000024
:100C800070B5464C237A012B00F0858033B14FF0CC
:100C9000FF3001F075FC4FF0FF3070BD404DEB6848
:100CA000D5E90B61E3652B8A3046A4F85430AB6874
:100CB000236400F007F908B1C4F88060D5E9056144
:100CC000304600F0FFF808B9D4F880606667D5E9CF
:100CD0000761304600F0F6F808B9D4F88060A667DE
:100CE000D5E90961304600F0EDF808B9D4F8806024
:100CF000E6676E6B3EB1D6E902233046316800F0FC
:100D00004CF9C4F88460AE6B3EB1D6E9022330469C
:100D1000316800F042F9C4F88860EE6B3EB1D6E964
:100D200002233046316800F038F9C4F88C602E6C2C
:100D30003EB1D6E902233046316800F02EF9C4F8FE
:100D400090606E6C3EB1D6E902233046316800F007
:100D500024F9C4F89460AE6C3EB1D6E90223304663
:100D6000316800F01AF9C4F89860EE6C3EB1D6E92B
:100D700002233046316800F010F9C4F89C602D6DF4
:100D80003DB1D5E902232846296800F006F9C4F8E8
:100D9000A0500123237200207FE700BFF400002051
:100DA0000495000870B5254D2B7A012B07D06FF004
:100DB000060001F0E5FB4FF0FF34204670BD01F066
:100DC000ABF910B94FF0FF30F3E7FF231C4A1D4E7B
:100DD00082F8223092F82230D26863F0FF03DB43BE
:100DE00014BFB3FA83F32023C2F30222C3F120031A
:100DF000934298BF531CFE2202FA03F3104ADBB25F
:100E000011497068D37701F047FA04460028D9D118
:100E100001F07AFA286101F05FFA0C4800F064FFF3
:100E200000F0C2FF3368DB074CBF0223032383F3C8
:100E30001488BFF36F8F02232B72BEE7F4000020EB
:100E400000ED00E004950008ED0B00081001002003
:100E5000704738B504460D46FFF704FF2946204683
:100E6000BDE8384001F04EBB08B5FFF7F1FFEFF3E6
:100E7000058333B16FF0050001F082FB6FF00500D0
:100E800008BDFFF7F1FE0028F4D1DFF808C000DF4D
:100E9000F6E700BF810C000808B5EFF3058333B116
:100EA0006FF0050001F06CFB6FF0050008BDFFF767
:100EB000DBFE0028F4D1DFF808C000DFF6E700BF52
:100EC000A50D0008034610B588B1084310F00700CF
:100ED0000DD117290AD9102219600839CC189C6045
:100EE0005A60C85099684A60D860012010BD00203F
:100EF000FCE70346F0B578B371B332F003002BD1B1
:100F00000F3121F0070103F10806344636686568A1
:100F1000301B25F00305401B814203D930680028AF
:100F2000F3D1F0BD5F681D680F445F602B4453F838
:100F3000040C083B874288BF5F6063680A431BB9A3
:100F4000626004F10800ECE723F00303E018E650C8
:100F5000426020600830E4E70020E2E7034610B575
:100F600078B1C1B10024083900F108028A4209D1E0
:100F7000516821F003005968091A596044B9546056
:100F8000012010BD106814460028FAD00246EDE793
:100F900013682360F4E70846F3E730B5C0B189B1C0
:100FA000C2B1CBB10024C0E9014202FB01F41D191A
:100FB0000160C360436105611846013904D1A21A7A
:100FC00099500121084630BD851805602846F4E790
:100FD0000146F7E71146F5E71946F3E7034610B572
:100FE000A8B100F1140252E8000F10B9BFF32F8F1F
:100FF00004E0016842E8001404B1F4E738B10433B6
:1010000053E8002F511C43E8001404B1F8E710BD69
:1010100030B5F0B1C3688B421BD803698B4218D935
:1010200000F114031A680A60BFF35F8F53E8002FC2
:101030000C689442F6D143E8001505B1F2E704309C
:1010400050E8003F5A1E40E8002101B1F8E70020B7
:1010500030BD6FF00300FBE7EFF310832BB9EFF324
:101060001180003818BF0120704701207047D1E976
:10107000013223B19A608A681AB153607047C26224
:10108000F9E70363704700002DE9F84F88460746EB
:1010900038B131B1B0FA80F3B1FA81F10B441F2BB2
:1010A00006DC6FF00301002001F07CFA002470E000
:1010B00008F1030626F003060C3606FB00F9F2B130
:1010C00094683CB1A30702D1D368332B05D86FF0E5
:1010D0000801E8E7D368002BF9D1D2E90453D2F82C
:1010E00000A03DB115F0030B01D1994554D96FF023
:1010F0000901D8E7002BFAD11CB19B460CE09246BF
:101100001546274BD3F8A000D8B1FFF767FF044678
:10111000A0B14FF0010B35BB214B00224946D86FDF
:10112000FFF7E7FE0546C0B9BBF1000F06D01C4B28
:101130002146D3F8A00058B1FFF76AFF6FF0040111
:10114000B1E701223421D3F88000FFF7D2FEDEE7B9
:10115000D3F88000FFF702FFF0E74A46002106F0CF
:10116000B9FE4BF0020BFA23237000233246C4E988
:101170000983C4E90B33A36039462B4684F802B0D7
:10118000C4F804A004F10C00FFF707FF044B054A64
:101190001A672046BDE8F88F002CE4D1B1E700BF04
:1011A000F40000203512000810B500F1280353E8C0
:1011B000002F12B9BFF32F8F04E0511E43E8001433
:1011C00004B1F4E70AB9002010BD0122C06A00286A
:1011D000F9D0811CD1E84F3FC1E8442F04B1F9E7B1
:1011E000DBB2002BF0D08068F1E7036B30B5E3B1E0
:1011F0000024CD78DA78AA420FD31A46C1E9012437
:101200008AB19160A4B16160283050E8003F5A1C57
:1012100040E8002101B1F8E730BD5A681C46002AB9
:10122000ECD01346E6E7C162ECE7C1E90133C162E5
:101230000163E9E7F8B5877804468FB30027C568EE
:1012400001462846FFF713FF277005F10C042046DE
:10125000FFF7DEFEAB68002B48D02046FFF7BEFE4E
:101260000446002842D0284600F03EFD06463A4695
:10127000394600F0BBFE304600F092FD6A6A064631
:10128000816804F10C0006F017FEF923A7702370A3
:10129000F368E37021462846BDE8F840FFF7A5BF94
:1012A0008568AB68002BF5D05B78832BF2D128469C
:1012B00000F01AFD06463A46394600F097FE3046E1
:1012C00000F06EFD06466A6A806804F10C0106F0C3
:1012D000F3FDF3680BB1E2781A7000232370214606
:1012E00005F10C00BDE8F840FFF792BEF8BD000024
:1012F0002DE9F0410C4617469846054618B103788B
:10130000FA2B00D141B928466FF0030101F04AF9E8
:101310006FF00300BDE8F0818368C3B15B78832B75
:1013200015D100F0E1FC06460122002100F05EFE2E
:10133000304600F035FD064621466A6A806806F0B0
:10134000BBFDF0680028E5D007700020E2E705F15A
:101350000C00FFF743FE064670B121466A6A0C3066
:1013600006F0AAFD0024F923314628463370B470F4
:10137000F770FFF73AFFE8E7B8F1000F10D04146E9
:10138000932000F087FE40B1074B2846596900F0D2
:1013900099FCEFF30983C3E902476FF00100B9E755
:1013A0006FF00200B6E700BFF40000202DE9F04125
:1013B0000F4615469846044618B10378FA2B00D11B
:1013C00041B920466FF0030101F0ECF86FF0030023
:1013D000BDE8F081FFF7E8FE064600283AD0014656
:1013E0002046FFF744FE3846626A06F10C0106F01B
:1013F00063FD0DB1F3782B70002504F10C07314625
:1014000038463570FFF704FEA3680BB90020DFE70C
:101410003846FFF7E3FD06460028F7D0204600F0E7
:1014200063FC07462946012200F0E0FD384600F043
:10143000B7FC626A0746816806F10C0006F03CFDC5
:10144000F923B5703370FB6831462046F370FFF71F
:10145000CCFEDBE7B8F1000F10D04146832000F04E
:1014600019FE40B1074B2046596900F02BFCEFF301
:101470000983C3E902756FF00100A9E76FF002006C
:10148000A6E700BFF400002008B5064B08219A6EBD
:10149000D86EFFF7F9FD044BD864B0FA80F040092C
:1014A000404208BD04950008F40000202DE9F041F9
:1014B00006460F4690461C46EFF305834BB196B99E
:1014C00030466FF0030101F06DF86FF00300BDE8E6
:1014D000F081FFF7C1FD0028F1D130462346DFF847
:1014E00048C000DFF3E73378FA2BE9D1002FE7D0CB
:1014F000002CE5D106F10C00FFF770FD054680B128
:101500003946726A0C3006F0D7FCF9232846C5E943
:1015100001762B70AC7085F8038000F0D1FA20467C
:10152000D5E76FF00200D2E7F1120008F8B50446E3
:101530000F4616461D46EFF3058343B18CB920468E
:101540006FF0030101F02EF86FF00300F8BDFFF714
:1015500083FD0028F2D120462B46DFF844C000DF8F
:10156000F4E72378FA2BEAD1002FE8D0002DE6D15A
:101570002046FFF719FE054670B100F10C01626AC2
:10158000384606F099FC0EB1EB7833702846EC60D3
:1015900000F096FA0020D9E76FF00200D6E700BF0E
:1015A000AD130008EFF310832BB9EFF3118000386F
:1015B00018BF0120704701207047000070B5A8B324
:1015C000D0E9005684686CB114F0030302D1C268FC
:1015D0001B2A1AD86FF00801002000F0DDFF00245C
:1015E000204670BDC368002BF4D1124BD3F8940091
:1015F00030B901221C21D3F88000FFF77AFC01E00A
:10160000FFF7ECFC044660B10123F522A370002330
:101610002270C4E90233C4E90433E67065602376BE
:10162000DEE76FF0040100F0B7FFD9E70546064694
:10163000DBE700BFF4000020284B70B55D6904466D
:101640000E4635B96FF0070100F0A6FF4FF0FF30EE
:1016500070BD10B10378F52B07D020466FF0030161
:1016600000F09AFF6FF00300F2E7037E53B9C0E980
:101670000353EB6A436103B118610123EC6200205C
:101680002376E5E7C278D1070DD5C168A9420AD112
:10169000FF2B06D16FF00F0100F07EFF6FF002000C
:1016A000D6E70133EBE7002EF8D093070AD5E068C0
:1016B00095F9203090F920209A4203DA80F8203002
:1016C00000F024FB3146532000F0E4FC18B1294619
:1016D000204600F0F7FA6FF00100B9E7F4000020AF
:1016E0002E4B70B55A69044632B96FF0070100F00D
:1016F00053FF4FF0FF3070BD10B10378F52B07D0CA
:1017000020466FF0030100F047FF6FF00300F2E79F
:10171000037E33B96FF00E0100F03EFF6FF0020060
:10172000E9E7C168914202D06FF00D01F4E7013B97
:10173000DBB2037613BB43690BB1016919612169FF
:10174000F1B14B6192F92130D56ADDB982F82030D0
:10175000A36883B1204600F0C7FA06462A46294608
:1017600000F044FCF36AC4E90365636103B11C61E2
:101770000123F4622376002000F01EFB0020BAE76C
:10178000D362DFE7E978890706D5A96821B191F925
:1017900020108B42B8BF0B466D69D6E7F4000020DD
:1017A00070B5044610B10378F52B07D020466FF0D2
:1017B000030100F0F1FE6FF0030070BD037EBBB1CA
:1017C0006369C0680BB122691A61226902B353616F
:1017D00090F92120C36AEBB990F92030934203D0ED
:1017E00080F8202000F092FAA068F8B900F0E4FA3E
:1017F0000026A078267010F00100DED0134B2146A1
:10180000D3F89450DDB12846FFF702FC3046D4E708
:10181000C362DDE7D978890706D5996821B191F9C6
:1018200020108A42B8BF0A465B69D4E7204600F020
:101830005BFA00226FF0020100F0D8FBD4E7D3F886
:101840008000FFF78BFB2846B7E700BFF4000020BD
:101850002DE9F0410446002601270CB9BDE8F081CE
:10186000E378D4F814801B0712D5A36826767BB1E1
:10187000204600F039FA00220546114600F0B6FB7A
:10188000EB6AC4E90356636103B11C61EC6227761D
:101890004446E2E710B4C3789B071CD5C06890F9B2
:1018A0002120C36ADC78A40709D59C688C4208BF54
:1018B0008C6824B194F92040A242B8BF22465B69EB
:1018C000002BEFD190F92030934204D080F82020F3
:1018D00010BC00F01BBA10BC70470000024608B5EF
:1018E000EFF3058333B100206FF0050100F054FEE3
:1018F000002008BDFFF756FE0028F4D11046DFF89F
:1019000008C000DFF5E700BFBD150008024608B5B6
:10191000EFF305833BB110466FF0050100F03CFE8C
:101920006FF0050008BDFFF73DFE0028F3D110461B
:10193000DFF804C000DFF5E739160008024608B5F5
:10194000EFF305833BB110466FF0050100F024FE74
:101950006FF0050008BDFFF725FE0028F3D1104603
:10196000DFF804C000DFF5E7E1160008024608B51D
:10197000EFF305833BB110466FF0050100F00CFE5C
:101980006FF0050008BDFFF70DFE0028F3D11046EB
:10199000DFF804C000DFF5E7A117000810B5D0E8B4
:1019A0005F3F5A1C914200D80022C0E8542F04B176
:1019B000F5E798B210BD000038B51C4C00F0A0FC53
:1019C000E3680133E36000F0BBF9002000F0F4F9B4
:1019D000236D03B19847226C32B3A369E16B99423E
:1019E00003D0D969E36301B9DA61DA69C2B9237A4C
:1019F000022B19D1656ABDB1E36B95F9202093F9EB
:101A000020309A4210D1284600F077F9E06B00F0C0
:101A10008FF9284600F0C8F9236CE563EB6103E019
:101A2000013ADA61002AE2D038BD00BFF40000209C
:101A300070B5224C04F1560504F15A06B4F854105E
:101A4000D5E85F3F13B9BFF32F8F04E05A1EC5E8F6
:101A5000502F00B1F4E79BB25BB33046FFF79EFF17
:101A6000E36D53F8200020B30378F13B082BE5D851
:101A700001A252F823F000BF9D1A00083D1A000889
:101A8000A31A00083D1A00083D1A0008A71A00080A
:101A9000AB1A00083D1A0008AF1A0008236E9847D9
:101AA000CCE7636EFBE7A36EF9E7E36EF7E7236F1E
:101AB000F5E70020BDE8704000F07EB9F40000209A
:101AC00070B5164C0546B4F8541004F15602D2E82D
:101AD0005F3F994202D8BFF32F8F04E0581CC2E841
:101AE000560F06B1F3E79BB2994205D82946BDE8E7
:101AF00070400220FFF7ADB904F15800FFF74EFF28
:101B0000E36D43F82050637A23B94FF08052044BC1
:101B10005A6070BD0123A372FBE700BFF4000020F0
:101B200000ED00E0EFF310832BB9EFF311800038E4
:101B300018BF01207047012070470378F12B00D0B7
:101B40007047C068F9E7000010B5D0E90431C469F6
:101B5000621C0CD103B1596142691AB113610023AF
:101B6000436101E0074A13630023C36110BD1BB149
:101B7000DA6959612244DA614269002AEED1014AE8
:101B8000D362F1E7F4000020012310B5094A437045
:101B900090F92010536A1C321BB193F920408C42FB
:101BA00005DCC0E90232906003B1D86010BD1A466E
:101BB0009B68F1E7F4000020014B5869704700BFB3
:101BC000F4000020002310B50380837804469A07B0
:101BD00008D513F0100F016B0E4B0FD0D3F8840013
:101BE000FFF716FAA378DB0712D50A4B2146D3F884
:101BF000880038B1BDE81040FFF70ABA586FFFF708
:101C0000ADF9EFE7D3F88000BDE81040FFF7A6B9C3
:101C100010BD00BFF400002008B500F0C9FCDFF8DB
:101C200010C000DF4FF0FF31002000F0AFFCFEE7F6
:101C300051200008C2780346D20701D4FFF7C2BF83
:101C40000422427000220449C2604A6B826002B1E1
:101C5000D0604B63704700BFF4000020930710B5BD
:101C600002F0010422D400F1280384B153E8000FEC
:101C700000EA01028A4203D0BFF32F8F002005E063
:101C800020EA010243E8002404B1EFE710BD53E865
:101C9000000F084203D1BFF32F8F002005E020EA98
:101CA000010243E8002404B1F1E7EFE7806A01EAAA
:101CB00000031CB18B4218BF0020E7E7002B08BFD0
:101CC0000020E3E710B591F9202083681BB193F958
:101CD0002040944205DAC1E90230816003B1D96045
:101CE00010BD18469B68F1E70346806882689A60D9
:101CF00002B1D3600023C3607047C2682AB1836811
:101D0000936003B1DA600023C360704710B50446E6
:101D100064B12378F12B07D0FFF7EFFF014620468F
:101D2000BDE81040FFF7CEBFE468F1E710BD00004A
:101D30000123014643700148FFF7C4BF1001002092
:101D400038B5164DEC6A44B3E369013BE36123BB4C
:101D50006378732B06D009D8532B0BD003F0DF0325
:101D6000432B0DD12046FFF7E8FE09E003F0EF0317
:101D7000832BF6E72046FFF7E0FE2146FFF78AFDBA
:101D80002046FFF7BAFFFFF7D3FF246924B1E369C8
:101D9000002BDDD000236361EC6238BDF40000202D
:101DA000806B20307047000002234370014B986124
:101DB000704700BFF400002070B5124D04462E7A23
:101DC000696990B9022E0FD16C6A6CB194F9202028
:101DD00091F920309A4207DD2046FFF78EFF084632
:101DE000FFF7D2FE6670AC6170BD022E05D190F98E
:101DF000202091F920309A42F1DC2046BDE8704065
:101E0000FFF796BFF40000202DE9F04F85B0039155
:101E1000019028B96FF0030100F0B8FB0024BEE088
:101E2000002A4AD0966846B1B00702D1D368432B46
:101E300006D86FF008010020EEE7D368002BF8D138
:101E4000D2E90449976944B1610703D1B9F1000FA0
:101E500040F0B1806FF00A01EDE72FB1791E37290C
:101E600003D96FF00B01E6E71827B9F1000F40F036
:101E7000A680D2E900B3029366BB564DD5F8880020
:101E800008B3FFF7ABF8064600283DD04FF0010835
:101E9000DFF840A1002C42D1B9F1000F1DD14E4B0B
:101EA000DAF88400D3F85490B8B1FFF797F80546F4
:101EB000E0B148F01008344623E093461446182752
:101EC00091460292D9E701224421D5F88000FFF71C
:101ED00010F8D8E74FF00008DAE722464946DAF86A
:101EE0007400FFF706F805460028E4D1B8F1000FAA
:101EF00013D0DAF8885031464DB12846FFF788F8FC
:101F0000002548F0020864B96FF0040193E7DAF89D
:101F10008000FFF723F82C46F3E74546F1E7254616
:101F2000344640F2F11222800022FD21C4E902224F
:101F3000C4E90422C4E90622C4E90922C4E90B2544
:101F4000029BA9F140022A44E370A263019B234A49
:101F50007FB2E36384F80280C4F804B084F8207090
:101F600084F821706184C4F834902A601A4A126897
:101F7000530718D4A36B34221846002105F0AAFF9A
:101F8000174A184B4263019A82634FF08072C26312
:101F9000039A02622046CAF86030FFF70DFF204620
:101FA00005B0BDE8F08F29F00302CC21443A281D8A
:101FB00005F090FFDEE7002F7FF450AF182719F0EF
:101FC000070F7FF447AF0849A9F1480088427FF620
:101FD00050AF3FE7F400002004950008A52E5AE218
:101FE000191C00080B200008B7FFFF7F10B514462E
:101FF000836B1962FFF7A8FD1CB1BDE81040FFF725
:10200000DBBEBDE81040FFF793BE10B54378044631
:10201000332B0CD1416A90F82320FFF71FFE0146B5
:1020200028B12046BDE810400022FFF7DFBF10BDF9
:1020300010B50446806918B100221146FFF7D6FF9B
:102040006378232B02BF0022A3689A6110BD0000B1
:1020500070B50F4C267A022E18D1636AB3B1656948
:10206000E86AFFF7F5FB2846FFF7E2FF04F11C00E2
:10207000FFF73AFE4670A061EFF30983AB630023DC
:1020800028466361BDE87040FFF7D4BD70BD00BF56
:10209000F400002038B51E4C0246237A022B34D1BE
:1020A000606AA0B163695A704A1C16D10021226B84
:1020B00072B94FF0FF30C3E90421D86159B10B6107
:1020C0001448FFF711FE02234370A061012038BDC0
:1020D00011461269ECE72363F2E70020E26A12B1CD
:1020E000D569A9420BD2C3E90420D96158B1036173
:1020F000002AE5D0D0695361411AD161E0E710466A
:10210000491B1269EBE7E362F2E70020DFE700BF5B
:10211000F40000201001002038B50D4C0021A26D04
:102120000C48FFF771FE0C4D636EA8625BB19847D7
:1021300058B9E26DE96C206EFFF766FEA8640038BE
:1021400018BF012038BD0120FCE70020FAE700BFDE
:1021500004950008FD240008F400002010B5044692
:10216000EFF3058333B100206FF0050100F00EFAA4
:10217000002010BDFFF7D6FC0028F4D12046DFF880
:1021800008C000DFF5E700BF091E000808B5EFF33F
:10219000058313B1054B586908BDFFF7C3FC002840
:1021A000F8D1DFF80CC000DFF6E700BFF400002034
:1021B000B91B0008002230B50B4D6B6C13B11C69C4
:1021C0008C420AD9C0E9022301611BB11C699860E5
:1021D000611A19612AB1D06030BD1A46091BDB684B
:1021E000ECE76864F8E700BFF40000202DE9F04157
:1021F000184D6C6C54B3012723696E69013B236150
:10220000236913BBE3680BB1A2689A606B64002377
:10221000E86C1A4604F11801FFF748F958B1D5E9FE
:102220000583214603206B61FEF713FE6B6913B92A
:10223000B04508BF0026E378012B09D1204661692B
:10224000FFF7B8FF6C6C002CDAD16E61BDE8F0814D
:102250006770F7E7F400002008B5FFF715F918B923
:10226000034B044A1A6508BD4FF0FF30FBE700BF7F
:10227000F4000020ED210008044607B54FF0FF33BD
:10228000002269462046FFF751F90028F6D1DDE922
:1022900000309847F2E70000A8B10C4B1B68B3FB75
:1022A000F0F00138B0F1807F0DD2FF22084B83F8A7
:1022B00023204FF0E02306221A6158610020986124
:1022C000044B187070474FF0FF307047A802002091
:1022D00000ED00E038130020074B1A782AB10022E5
:1022E0001A704FF08062054B5A604FF0E02213697C
:1022F00043F00103136170473813002000ED00E044
:102300004FF0E0231B6970474FF0FF30704700002B
:1023100008B5094A094B1A60094B9B1A094A136010
:10232000094A0A4B1A600A4B9B1A0A4A136000F0CA
:1023300051F800F081F800BF004C0020A0130020ED
:10234000005000209C130020D0290020D025002020
:10235000004C0020CC25002038B50B251C240D484E
:102360000D4B456003600D4BC4608360FFF7B6FA08
:102370000B4B18600B480C4BC460C0E900350B4B8D
:102380008360FFF7ABFA0A4B1860BDE8384005F0F0
:10239000FFBC00BF6C130020D895000880130020FC
:1023A0007C1300203C130020E5950008501300200A
:1023B0004C130020FDF730BF024B4FF0FF3118687F
:1023C000FFF7A4BA7C130020014B1868FFF7B6BAD8
:1023D0007C13002008B50C4B0C4998684FF0005353
:1023E000C21802F16042126843F8042B8B42F7D105
:1023F0004FF00052044B9A6003F078FC04F00CFBA1
:10240000BDE8084000F015B800ED00E0EC00002049
:102410007047704708B500F043F8FFF7F9FFFFF782
:102420009BFFFFF7F6FF02F0AFF9BDE80840FFF7AA
:10243000C1BFFEF719BD0000114C124B07B5236157
:102440004FF4805363614423E3600F4B2246A36043
:102450001823A3610D4B00210D482360FFF77EFE7A
:10246000034628B922460B4900900B4802F094F924
:10247000FEF712FD002309491A460093F5E700BF55
:10248000A8230020A8130020CC230020FF950008DB
:1024900015240008049600081D01018020960008FC
:1024A0001FB56C46054B0FCB84E80F002046FFF7A5
:1024B00015FA034B186004B010BD00BF3896000831
:1024C0001024002073B506460C46154602F05EF94E
:1024D00070B9063428BF074B324628BF53F8241082
:1024E0004FF00003284638BF0349009302F054F927
:1024F00002B070BDFC9700085097000808B500F0C6
:1025000071F80000002307B5411E00930246002326
:10251000042919D8DFE801F003080C101400012287
:102520000B490C4802F038F902220B490B48F9E735
:1025300003220B490B48F5E704220B490B48F1E74E
:1025400005220B490B48EDE70B490C48EAE700BFB1
:10255000489600082501028069960008260102803D
:102560008E96000827010280C39600082801028089
:10257000FE9600082A0102803E97000800010280B2
:102580000146014AFFF79EBF31010180014AFFF772
:1025900099BF00BF32010180014AFFF793BF00BF1E
:1025A00033010180014AFFF78DBF00BF3801018070
:1025B00010B5FFF7EBFD034B1B6813B1BDE81040EE
:1025C000184710BD3024002008B501F057FF02F075
:1025D000FDF802F035F902F00FF9BDE8084001F00E
:1025E00063BF000008B5024C23689847FCE700BFB2
:1025F000980100200368012200211B69184700226E
:10260000036811461B6918476FF01500704780F882
:1026100034130020704780F850120020704790F863
:102620003403704790F85002704700207047012033
:1026300070476FF01C0070470A4B10B503604833B9
:102640000446C0F8E430D0F8380310B103685B6882
:10265000984704F5407002F027FC204600F0EEFD9C
:10266000204610BDD8980008A0F1E400FFF7E4BFB1
:1026700010B50446FFF7E0FF20464FF44F7102F01B
:102680009CFB204610BDA0F1E400FFF7F1BF10B4A1
:102690000168D0E90132541001EB6200D20748BF53
:1026A0000A5910BC48BFD35818476FF01C00704738
:1026B000002070470120704700F02CBD2DE9F0414B
:1026C00004460D4616461F4600F54078404602F087
:1026D000B3FB20463B463246294600F02FFD4046DC
:1026E000BDE8F04102F0C6BBD0F8380308B520B110
:1026F00000F0CEFB003818BF012008BD30B5002522
:1027000087B0CDE9005502AB0ECB044600F04FFD7B
:1027100084F8365307B030BD30B50123002587B0AB
:10272000CDE9005302AB0ECB044600F040FD84F827
:10273000355307B030BD10B5044601F09FFED4E913
:1027400040239A4212BF002494F8084184F0010407
:1027500001F0AAFE204610BD38B500F540750446CC
:10276000284602F069FB04F5FA742046FFF7E3FF00
:1027700048B9284602F07EFB012002F020FB2846E3
:1027800002F05AFBF1E7284602F074FB002038BD46
:10279000A0F1E400FFF7E0BF38B50546E830FFF7E9
:1027A000CAFF80F001042846E4B2FFF79DFF18B18C
:1027B00044F40054204638BD95F8FC32002BF9D182
:1027C00044F01004F6E7A0F1E400FFF7E5BF0000D5
:1027D00038B504460D4601F051FED4F800312A7890
:1027E000E2540133B3F5807F05D94FF4AF720C4941
:1027F0000C4801F085FD08BF002394F80821C4F8B7
:1028000000312AB1C4F80431BDE8384001F04CBEB3
:10281000D4F804219A4204BF012384F80831F3E775
:10282000549800086598000870B504460E4601F0FB
:1028300025FED4E940239A4202D194F80851B5B15B
:10284000E35C3370D4F804310133B3F5807F05D9EC
:102850004FF4AF720849094801F052FD4FF00002F1
:1028600008BF13460125C4F8043184F8082101F09B
:102870001BFE284670BD00BF5498000865980008EC
:1028800010B586B00446684680E80C0006A800E94A
:102890000C00039110E9070084E807002046024B72
:1028A000E36006B010BD00BF8F260008C36810B5F6
:1028B0002BB94FF4FD720349034801F021FDBDE837
:1028C00010401847B7980008C298000884B070B547
:1028D000064605AC06F5497584E80E0001F0CEFD0C
:1028E00094E80F0085E80F00D6F8303343B147F67F
:1028F000FF713046FFF750FF10B12846FFF7D6FFB3
:10290000BDE8704004B001F0CFBDA0F1E400FFF7D6
:10291000DDBF08B5D0F830331BB100F54970FFF7C3
:10292000C5FF08BD73B500F1E80504462846FFF76A
:1029300002FF064694F8F03173B9204600F015FC0A
:1029400050B1204600F0ACFC0DF107018DF80700F6
:102950002846FFF73DFFEDE794F836332BB194F8A6
:10296000F03113B12046FFF7C9FE4EB12846FFF7FC
:10297000E2FE28B9204602B0BDE87040FFF7C9BFAB
:1029800002B070BD70B5044688B001F077FD94F8D0
:10299000BC30EBB194F83633D3B92046FFF7C2FF11
:1029A00094F8F061A6B90C4B04AD2146CDE902368E
:1029B000094A33462846FFF763FF079B01960093B9
:1029C00095E80E00204600F0F2FB012384F8363330
:1029D00001F06AFD08B070BD2529000838B504462D
:1029E000002500F051FB104BC4E97A5503F10802B1
:1029F00050332260C4F8E430C4E9BD5584F8F05186
:102A000084F8FC5204F5407002F00EFA01232046CF
:102A1000C4F83053A4F8343384F83653C4F8385328
:102A2000FFF7B0FF204638BDD09800082DE9F047E9
:102A30000646894615469AB300F54077384602F0B7
:102A4000FBF906F1E8084046FFF775FE044690B131
:102A500096F8343338462BB902F00CFA6FF00A00BE
:102A6000BDE8F08702F006FA012002F0A8F9384626
:102A700002F0E2F9E7E7404609EB040AFFF75BFEE4
:102A800030B9514640460134FFF7CEFEA542F2D19F
:102A90003046FFF777FF384602F0ECF92046DFE7D3
:102AA0001046DDE7A0F1E400FFF7C0BF70B50446B3
:102AB0000D4600F54076304602F0BEF92946204624
:102AC00000F001FC2046FFF75DFF304602F0D2F92E
:102AD000002070BDA0F1E400FFF7E8BF73B5044625
:102AE00090F8FC5200F5FA76204600F04FFB58B102
:102AF00030460DF10701FFF797FE28B120469DF8FB
:102B0000071000F0D0FBEFE794F835333BB104F544
:102B1000FA70FFF710FE10B12046FFF7FDFD4DB132
:102B200094F8FC3233B92046FFF7DEFD10B9204699
:102B3000FFF7EFFE02B070BDF8B505460C4616462D
:102B400000F5FA773846FFF7F6FD40B1A719BC4209
:102B500009D0284614F8011B00F0A5FBF7E728462A
:102B6000FFF7BCFFEEE73046F8BD000070B5044645
:102B700088B001F083FC94F8BD30FBB194F8353394
:102B8000E3B92046FFF7AAFF04F5FA70FFF7D3FD7B
:102B9000A0B901260B4B04ADCDE902302146034616
:102BA000084A2846FFF76CFE079B019600932046D3
:102BB00095E80E0000F0FBFA84F8356301F074FC30
:102BC00008B070BDDD2A00082DE9F04706460F4623
:102BD0001546002A43D001F04EFC044630B12A4687
:102BE00039463046BDE8F047FFF7A6BF06F5407806
:102BF000404602F021F906F5FA7996F8FC3273B9ED
:102C0000A7EB040AA5420AEB040719D996F8FC328F
:102C1000B3B939464846FFF7DBFD0134F2E796F8D1
:102C2000343393B1404602F025F9012002F0C7F891
:102C3000404602F001F996F8FC32002BF2D1DFE7B2
:102C40003046FFF793FFA542D7D8404602F012F96D
:102C5000002C14BF20466FF00A00BDE8F087104634
:102C6000FBE7A0F1E400FFF7AFBF70B504460D46E7
:102C700000F54076304602F0DFF82946204600F0A5
:102C80006BFB2046FFF772FF304602F0F3F800209E
:102C900070BDA0F1E400FFF7E8BFE43002F0CCB86B
:102CA000E43002F0E7B800EB0110036E543003B1DA
:102CB000184770472DE9F84305469946114B0446DD
:102CC00045F8043B0F46904600215022284605F067
:102CD00001F9002304F1540604F1E400F360103616
:102CE000B042FBD102F0A0F84B4642463946284696
:102CF00002F096FC28462246034902F0F7FA2046E5
:102D0000BDE8F88370990008A72C000884B073B55B
:102D1000064607AC84E80E0056F8043B05469B685F
:102D20009847002301930A9B3046009394E80E00D5
:102D300002F092FB04462B682846DB689847204641
:102D400002B0BDE8704004B0704784B02DE9F04790
:102D500004469DF8347000F1E408404609AD07F1DF
:102D6000050A85E80E0004EB0A1602F065F80C9AD5
:102D7000043604F10409F368A2B10BB901F026FD91
:102D800095E80F0004EB0A14043484E80F000122D4
:102D90004846394602F07CFC4046BDE8F04704B0A6
:102DA00002F068B80BB101F027FD0022F260EFE7F6
:102DB000F0B5002504462F460E4B87B0036002AEE7
:102DC000EBB2CDE90073204696E80E000135FFF71F
:102DD000BCFF092DF4D1251D284602F095FA28469E
:102DE00002F0A2FA04F1E40002F05EF8204607B017
:102DF000F0BD00BF7099000810B50446FFF7D8FF7A
:102E000020464FF4847101F0D8FF204610BD000029
:102E100010B50446034B40F8203B02F0FDFE20466F
:102E200010BD00BF8899000810B50446FFF7F0FFF9
:102E30002046502101F0C1FF204610BD0346024A42
:102E4000203002F0F3BD00BF152F000870B5054615
:102E500004460E4B0E4645F8043B1C220021284632
:102E600005F038F81022002104F1200005F032F8B6
:102E7000002331462046E363E364FFF7DFFF284683
:102E8000314600F0DCFB204670BD00BF8899000889
:102E900083681A6843681A4214BF012000207047F3
:102EA00084B070B5044605AD85E80E0001F0E6FA81
:102EB000089A04F1200672B195E80F00303484E8D6
:102EC0000F0001223046012102F040FDBDE87040B4
:102ED00004B001F0E9BAE263F4E784B070B50446E7
:102EE00005AD85E80E0001F0C9FA089A04F1200644
:102EF00072B195E80F00403484E80F00012230469B
:102F0000022102F023FDBDE8704004B001F0CCBA0C
:102F1000E264F4E7012908B502D0022907D008BD10
:102F2000C36B002BFBD03030FFF7C0FCF7E7C36C5E
:102F3000002BF4D04030F7E738B504460D4601F0D9
:102F40009DFA2946204603F0C5F8BDE8384001F057
:102F5000ABBA38B504460D4601F090FA2946204632
:102F600003F056FABDE8384001F09EBA837E10B5F2
:102F700004461BB901F02AFC0123A37610BD837E11
:102F800010B504461BB101F037FC0023A37610BD39
:102F900010B5044601F072FAE37E4BB92046B4F94D
:102FA000181003F0B9F92046FFF7E0FF0123E3769C
:102FB000BDE8104001F078BA0023002210B50446A5
:102FC00001834383C2610362FFF7E2FF204610BD25
:102FD00010B5044601F052FAE37E3BB1204603F0FF
:102FE00073F82046FFF7CBFF0023E376BDE81040DF
:102FF00001F05ABA10B50446FFF7EAFF204610BDAB
:1030000070474168034630B471B1D0E9032000F045
:10301000010402B944B1451001EB60000CB14959FB
:103020008A58996830BC104730BC704770B5044668
:1030300000F14C06B0F9C020B0F9BE10304603F0E4
:103040001FFBD4E932530DB9DA070ED55A1004EB41
:103050006300DB0748BFA35894F8D01048BF5D5900
:10306000B4F9D220B4F9D430A8473046D4F8B81017
:1030700003F0A6FA22463046BDE87040014902F04E
:1030800025B800BFB53200082DE9F04100251646ED
:103090004C2298461C4B044603601C4B0F46436071
:1030A0001B4B2946C0E90555C0E907558560C3603B
:1030B000858445634564A0F848500061104404F0DD
:1030C00009FF40F20113A4F8BC304FF6FF7320460D
:1030D000C4E92D58C4E93155C4E93655C4F8A450A3
:1030E000A4F8BE70A4F8C060C4F8CC5084F8D050E6
:1030F000A4F8D230A4F8D430C4F8E050FFF796FF1B
:103100002046BDE8F08100BF989900082D300008E6
:103110000330000870B506460D46044656F84C3B91
:103120001B6898473046294603F04AFA2368204630
:10313000C4F8B8505B68BDE8704018472DE9F0410D
:1031400005460E4617469846044655F84C3B1B6804
:103150009847434628463A46314603F041FA2368E9
:103160002046BDE8F0415B68184738B5054655F87C
:103170004C3B04461B689847284603F0D5F90546A2
:10318000236820465B689847284638BD38B5054611
:1031900055F84C3B04461B689847284603F0DAF97B
:1031A0000546236820465B689847284638BD84B0AA
:1031B0002DE9F047054609AE86E80E0003689DF844
:1031C00034701B68984795F8BC303C0103B18FB14F
:1031D00095F8BD300BB1012F0CD096E80F002C44B0
:1031E000983484E80F002B682846BDE8F0475B68F8
:1031F00004B0184701F042F904F198080C9AA84469
:10320000D8F80C3005F14C0982B10BB901F0DEFAA7
:1032100096E80F002C44983484E80F0001223946C8
:10322000484601F05FFF01F03FF9DCE70BB101F028
:10323000E3FA0022C8F80C20F1E7000070B5002680
:10324000114B86B00360CDE9006602AD95E80E0033
:103250000446FFF7ACFF0123CDE90063204695E863
:103260000E00FFF7A4FF94F8BC3013B994F8BD30FA
:103270001BB104F14C0003F0EFF8206A08B101F033
:1032800007F8204606B070BD9899000810B50446AE
:10329000FFF7D4FF2046E42101F08FFD204610BD4A
:1032A0004C3001F06FBF10B50C464C3001F080FF80
:1032B000204610BD00EB0110983008B5C3680BB173
:1032C000FFF7F4FA08BD70B504460D4603681B68A5
:1032D000984794F8BC30AB422BD065B194F8BD3020
:1032E0004BB9A2686368511004EB6200D20744BF77
:1032F0006258D358984701F0C1F805B3D4F8A43008
:103300005BB104F19800FFF7D1FA01F05FFA0122F6
:10331000002104F14C0001F0E5FE01F0C5F884F84D
:10332000BC5035B994F8BD301BB904F14C0003F022
:1033300093F823682046BDE870405B6818472A462A
:10334000294604F14C0001F0CDFED4F8A430002B46
:10335000E3D001F051FAE0E770B504460D4603688A
:103360001B68984794F8BD30AB422BD065B194F8F8
:10337000BC304BB9A2686368511004EB6200D207FD
:1033800044BF6258D358984701F078F805B3D4F891
:10339000B4305BB104F1A800FFF788FA01F016FA27
:1033A000012204F14C00114601F09CFE01F07CF872
:1033B00084F8BD5035B994F8BC301BB904F14C0009
:1033C00003F04AF823682046BDE870405B68184760
:1033D0002A46012104F14C0001F084FED4F8B430F7
:1033E000002BE3D001F008FAE0E770B5D0E9021352
:1033F000D0E908250446521845EB030300F092F883
:10340000636B23B104F12800BDE87040184770BD1C
:1034100038B50446154600F06FF8064B00222360CD
:103420000023C4E9082300232046636384F838504E
:1034300038BD00BFBC99000813B5044601A800F0D0
:103440002FFF204600F078F8636B23B194F83830F2
:103450000BB101F0D1F9002301A8636300F026FF4E
:1034600002B010BD70B5054614461E4600F064F863
:10347000C5E90846A86900F029FB221846EB0103BC
:103480002846BDE8704000F04DB884B073B50546DD
:1034900007AC01A884E80E0000F002FF6B6B23B9B3
:1034A00095F838300BB101F091F994E80F0005F16F
:1034B000280686E80F00DDE90C232846FFF7D2FF37
:1034C00001A800F0F3FE02B0BDE8704004B0704700
:1034D00010B5044600F010FB012201462046FFF71C
:1034E00097FF024B2046236010BD00BFB099000833
:1034F00003681B681847000010B50446074B0022FC
:1035000023600023C4E9022300230846A161C4E923
:103510000433034900F067FA204610BDC89900083B
:10352000F134000807B5009000F10801806900F04F
:1035300098FA03B05DF804FB00F10801806900F01F
:10354000AABA000010B50446024B0360FFF7F4FF6F
:10355000204610BDC89900080020704700290CBF04
:103560006FF01800002070470120704784B001A858
:1035700080E80E0004B0704770470000EFF310833E
:1035800072B6054A117831B9DB43044903F00103EF
:103590000B70012313707047352400203424002061
:1035A00008B5EFF31083DB4313F0010304D0362298
:1035B0000549064800F0A4FE054A1370054B1B7828
:1035C00003B162B608BD00BFFD990008199A000852
:1035D0003524002034240020014B1878704700BFA8
:1035E0003524002070B50E460446154602F016F943
:1035F000013609D02046002102F036F9294620463E
:10360000BDE8704002F02CB970BDF8B50F46044615
:1036100015461E4602F002F901370FD023685EB14D
:10362000A26820460121136002F01EF929462046B7
:10363000BDE8F84002F014B9E268F2E7F8BD0022F4
:10364000FFF7D0BF13460022FFF7DFBF0022FFF7CE
:10365000F9BF000007B502468A4208460AD0531C4B
:1036600008D0013005D0002304490548009301F03B
:1036700093F8104603B05DF804FB00BF339A0008CE
:10368000300101800346B1F90000421C00D17047AF
:10369000984201D1486870470C31F4E7421C13B5D9
:1036A00004460AD0FFF7EEFF431C06D10023224652
:1036B00003490448009301F06FF802B010BD00BF49
:1036C000449A0008300101800346B1F90000421C11
:1036D00000D17047984201D1886870470C31F4E7F7
:1036E000F8B5446894F832608EBB03685B6898470D
:1036F000216A81422BD02369411A194094F9342060
:10370000A3682062A1FB03C1CAB1656A15EB0C0571
:1037100041F10001002A1BDBC2F12000A2F12003CD
:1037200025FA02FC01FA00F021FA03F34CEA000C3E
:103730004CEA030CD1400CFA02F2AA1A6262D4E9F4
:103740000A3213EB0C0341EB0201C4E90A31F8BD64
:10375000E76833463A46284605F0DAFC844607FB1C
:1037600010506062EBE7824206D98A420BD9884248
:1037700094BF002001207047884206D98A428CBF3E
:103780000020012070470120704700207047000092
:103790002DE9F047476806463B6B23F07F4929F047
:1037A000FF09B9F1000F5DD1FFF79AFF7B68002B8D
:1037B0005AD0D3E90041D7E90A23A2428B4104D36E
:1037C0003368BDE8F0475B6918477568D5E90A03B7
:1037D000241A61EB030CEB69D5E90582A24273EB75
:1037E0000C031ED3EB68A3FB044103FB0C1195F9FA
:1037F00033309BB1AA68501E001941F10001002B23
:103800001DDBC3F1200CA3F1200220FA03F401FA1E
:103810000CFC44EA0C0421FA02F21443A04528BF30
:10382000A0462A6A3B6A90442A6908EA020843458E
:103830000AD140F2C9121149114800F061FD4B460E
:1038400005F066FC0446E9E7336840461B69984783
:1038500033685B68984742460146386AFFF783FF42
:103860000028ADD1BDE8F0877B69386A3A69184411
:10387000336810401B69BDE8F0471847959A000867
:10388000A79A00084368F7B593F830200546002A48
:103890007BD193F83230002B77D103681B689847AF
:1038A0002B68DB699847036807462BB91A463849E5
:1038B0003848009300F070FF1946374C2246B1FBA0
:1038C000F4F402FB14141146002CF7D132481F21E6
:1038D000B0FBF2F001246E68B060013903D304FA42
:1038E00001FC6045F9D1B3FBF2F286F833101F23D7
:1038F0000121F26001FA03F4A24201D0013BF9D2A6
:1039000086F834307C68271F1C2F05D900232349F3
:103910001A4623480093CDE70721202C14BF01232A
:103920004FF0FF3301FA07F14FF000071CBFA3402F
:1039300003F1FF3333617161CB17A1FB004100FB41
:103940000311501E47F1FF3C201841EB0C013B4690
:1039500005F0DEFB2B68C6E90601C6E900775B6867
:10396000984700213062012200206B68C3E90A01F8
:103970005F6228461A8683F83270FFF7B1FE284648
:1039800003B0BDE8F040FFF703BF03B0F0BD00BFD8
:10399000CB9A00080E01048040420F00E49A000810
:1039A00005010480F0B400264568049CC1E90023A9
:1039B0008C606C682CB9CC6066B96960F0BCFFF7AC
:1039C000E7BE2768BA42676873EB0707F3D326465A
:1039D000E468EFE7F160D5E90A41944271EB030333
:1039E000ECD2F0BC704738B505460C46FFF74AFFED
:1039F00000F044FD6B681C60BDE8384000F054BD29
:103A000070B5054600F03AFDD5E90034DB6898470B
:103A100094F832301BB1BDE8704000F045BD012381
:103A200084F831306368ABB12846FFF759FED4E91A
:103A30000A616368D3E90002864271EB020209D38E
:103A40006A68DB68526863602368002BEAD090687C
:103A50009847E7E70023284684F83130FFF798FEBF
:103A6000D9E72DE9F34104460D4617461E46DDF819
:103A7000208000F003FD2046FFF732FE3A46334631
:103A800029462046CDF80080FFF78CFF02B0BDE844
:103A9000F04100F009BD38B505460C4600F0EEFCDB
:103AA0006A685368A34209D1DB6828465360FFF770
:103AB0006FFEBDE8384000F0F7BC1346002BF8D08D
:103AC000DA68A242F9D1E268DA60F2E738B5044672
:103AD000FFF7D8FE00F0D2FC2046FFF701FE636836
:103AE000D3E90A4500F0E0FC2046294638BD08B578
:103AF000FFF7ECFF08BD704700487047209B0008A7
:103B0000024B1B680BB10248184770479C0100200C
:103B1000209B0008B1F90C20B1F9041002F0B0BDEF
:103B2000102300F007B8202300F004B8302300F081
:103B300001B840239C46F0B404AE7546E80801D3B2
:103B4000EFF309860E4F0FCE0FC70FBC0FC74046CD
:103B5000494652465B460FC71DCE3100A60A00D328
:103B600004316E0900D248311FC7EFF3098069465E
:103B7000EFF3148663C76046014900F079F800BF8F
:103B800070240020F0B52C4E002435462B4F85B014
:103B90002146384656F8042B013400F053FC0D2C16
:103BA000F6D1AB6C264C02936B6C264801932B6CC0
:103BB0000093D5E90E23696B00F044FC216822488C
:103BC00000F040FCE16AA26AA36AA06A266BE76B78
:103BD000000CCDE901670090C3F307231B48D2B264
:103BE00000F030FCA36A1E0603D5616B184800F094
:103BF00029FCA36A180403D5A16B164800F022FC27
:103C0000EB6C190712D5144800F01CFC2B6DDA0779
:103C10000FD5124800F016FCEB6C5B074CBF104848
:103C2000104805B0BDE8F04000F00CBC0E4800F0B4
:103C300009FC0E48EEE700BF702400204C9B0008F2
:103C400000ED00E05A9B0008A99B0008B79B000804
:103C5000069C0008149C0008229C0008319C000867
:103C6000619C00086D9C0008519C00083E9C000867
:103C700007B504460D461A48012100F067FB68BBF2
:103C8000184800F0DFFB302C19D0402C1CD0202C21
:103C90001FD1154800F0D6FB144C154800F0D2FB9C
:103CA000FFF770FF134800F0CDFB00220C4B1A7099
:103CB00000232A4620461049009300F06DFD0F486E
:103CC00000F0C0FB0E4CE8E70E4800F0BBFB0E4CCA
:103CD000E3E70E4800F0B6FB0D4CDEE70024E7E713
:103CE00040250020799C0008A29C00083E01FF802E
:103CF000CF9C0008DA9C0008F99C0008B19C0008E1
:103D00003F01FF80BA9C00084001FF80C59C00086D
:103D10003D01FF8070B505461446184613686FF0E4
:103D2000004293420E46049905D229B104F008F8E6
:103D3000431C05D1206070BD15B1B34238BFE854B3
:103D4000236801332360F6E72DE9F04F002589B0A1
:103D50009DF850A00F469DF84810AA4514BF4FF09B
:103D6000300B4FF0200B012906469146CDE9055551
:103D7000DDF84C8007951FD1AB4220DA0D465B423F
:103D8000A1F1020C5FFA8CF200244FF00A0C05A896
:103D90000392039A012A34D802290CBF2D4A2E4AD5
:103DA00003F00F0E12F80EE01B0980F800E001345A
:103DB0000130002BEDD108E00A1F55425541002B80
:103DC000DED1302301248DF8143015B3BAF1000F81
:103DD00007D0159B4A46009339462D233046FFF7FE
:103DE00099FF0134444516DBBAF1000F07D1159B4A
:103DF0004A46009339462D233046FFF78BFF013C9E
:103E000017E0B3FBFCFE0CFB1E333033037073462C
:103E1000CDE744450DDA159B4A46009339465B468B
:103E2000304608F1FF38FFF775FFA045F3DC002DA1
:103E3000DAD105AD08E0159B013C00934A463946AE
:103E400030462B5DFFF766FF002CF4D109B0BDE8CA
:103E5000F08F00BF099D0008199D00082DE9F04F63
:103E60009B4600238FB005460C4691460D93B2B198
:103E7000994214DB08BF01234FF0000818BF01F17D
:103E8000FF340A9319F808306BB945B10A9B33B96E
:103E90000D9BA34295BF0A9A0A9BEA542B550D9895
:103EA0000FB0BDE8F08F252B40F0BA8108F1010377
:103EB00019F80320203AD2B20D2A07D842F6090198
:103EC00021FA02F2D20748BF08F1020319F80320D1
:103ED0002A2A1FD14FF0000A591C0BF1040BCDF810
:103EE00014A019F8012009EB01032E2A56D15A78A3
:103EF0002A2A29D000260A27C9F10100C11813F87F
:103F0000012F303A5FFA82FCBCF1090F21D807FB80
:103F10000626F3E7302A15D1013319F80320302A99
:103F2000FAD001224FF0000A0A2605924B44A3EB77
:103F3000090113F8012B303AD0B20928D1D806FB79
:103F40000A2AF4E70022EDE75B4653F8046B0231DE
:103F50009B4619F80130682B23D109EB01035B78EC
:103F6000682B0CBF7222112202F003030B4419F8D4
:103F700003700493642F01D0692F46D1822A2BD17C
:103F8000189B21460093284625230DAAFFF7C2FE61
:103F9000049B252F18BF4346049330E06FF0004682
:103FA000D7E76C2B07D109EB01035B786C2B0CBFB7
:103FB00082222122D8E76A2B08D07A2B08D0742BD2
:103FC00008D04C2B14BF00226122CDE73122CBE771
:103FD0004122C9E75122C7E7112A5BF8043B12D0FE
:103FE000722A00D15BB2189A0392059ACDE901A218
:103FF00001220092214628460DAAFFF7A5FE049B48
:1040000003F101083EE71BB2EDE7752F03D007F07F
:10401000DF03582B19D1822AB2D0112A5BF8043B56
:104020000BD0722A00D1DBB2189A752F0392059A31
:10403000CDE901A203D10022DBE79BB2F4E7582FC0
:1040400001D10322D5E70222D3E707F0DE03462B96
:1040500040F0A6800BF1070323F0070BFBE80223D7
:1040600010461946CDE9062304F010FD074604F07A
:104070001BFC02460B46DDE9060104F0C7FA0B46BD
:104080000246CDE908236FF000439E4264D0002E23
:1040900063D10022674B04F0EFFC00286FD001379A
:1040A000B0462DE002FB08F80133B342FADB40468C
:1040B00004F0FAFBDDE9082304F07AF90022CDE9E7
:1040C0000801DDE90601002304F0B8FC0B9000288C
:1040D00048D0DDE908230020564904F097FA04F09F
:1040E000D5FC804501DC0020013F731CB04606462C
:1040F000AAEB030ADDE90623CDE908232AEAEA7AD6
:10410000002F46D1DDE908010022002304F096FCCF
:1041100000283ED0189B0393059BCDE901A30423FF
:10412000009321463B4628460DAAFFF70DFEB8F145
:10413000000F3FF464AF189B2146009328462E23BE
:104140000DAAFFF7E7FD189B03930123CDE9018337
:104150000023009333464DE7032600234FF0010868
:104160000A22A2E70022DDE90801324B04F050FAEE
:1041700004F08CFC8045DCBF0B980137B5E70022CA
:10418000DDE908012C4B04F059FC002888D0013FE0
:1041900086E7189B0393059BCDE901A30123BFE7A5
:1041A000632F0AD15BF8043B189A214600922846F7
:1041B000DBB20DAAFFF7AEFD21E7732F12D15BF83A
:1041C000047B3E443B78002B3FF419AFB7423FF4E9
:1041D00016AF189A2146009228460DAAFFF79AFDBD
:1041E0000137EFE7702F7FF4CBAE189B5BF8047BB1
:1041F0002146284600930DAA3023FFF78BFD189B1C
:1042000021460093284678230DAAFFF783FD189BCB
:1042100003930023CDE90133032300933B46E9E6F2
:10422000189A2146009228460DAAFFF773FDCDF893
:104230001080E4E60000E03F0000E0BF0FB41FB5CF
:10424000084906AB096853F8042B896800200091DF
:104250006FF000410393FFF701FE05B05DF804EB3A
:1042600004B07047AC02002013B500240094FFF79F
:10427000F5FD02B010BD07B5134600900A460020B8
:104280006FF00041FFF7EAFD03B05DF804FB0000AA
:10429000024B1B6803B11847704700BFC4240020BD
:1042A00010B5044600F0EAF8204610BD10B50446EB
:1042B00000F0FAF8204610BD6FF0150070476FF05F
:1042C00015007047036870B5012200211B69044680
:1042D0009847051E0DDB2368022200211B6920463A
:1042E0009847064623682946002220461B699847BE
:1042F0003546284670BD03F03DBE03F0F3BD000017
:1043000007B50B46009201460022014800F044FA2E
:104310004401FF8003460122D3E84F0FC3E8412F39
:10432000C0B20029F8D17047D0E85F3F5B18C0E801
:10433000523F002AF8D198B27047D0E85F3F5B1A2D
:10434000C0E8523F002AF8D198B270470346D3E83C
:104350004F0FC3E8421FC0B2002AF8D170470000D7
:1043600000B589B000F08AF8052101A8FFF76EF9C1
:10437000104E114D0424039B019A30461A6000F040
:1043800020FD049B019A30461A6000F01AFD013CA2
:10439000F1D10424039B019A28461A6000F011FD14
:1043A000049B019A28461A6000F00BFD013CF1D1F4
:1043B000E0E700BFF0490200801A060073B5002252
:1043C00001460446022000F083FB0D2600F056F85B
:1043D0000022254614F8013B23B902B0BDE8704025
:1043E00000F062B80A2B09D10D2A07D00122022061
:1043F0000DF107018DF8076000F06AFB01222946E4
:10440000022000F065FB14F8012CE2E700B5A3B030
:1044100002460B4601A88421FFF726FF832806D910
:10442000074B1A681B79CDF883208DF88730002858
:1044300002DD01A8FFF7C2FF23B05DF804FB00BF57
:10444000299D00080FB407B504A951F8040B019188
:10445000FFF7DCFF03B05DF804EB04B07047EFF347
:104460001080C04300F001007047EFF30580003872
:1044700018BF01207047FFF7AFB8000008B5FFF77D
:104480007DF8064A1368591C04D13F2204490548A7
:10449000FFF736FF0133136008BD00BFC8240020BA
:1044A000649D0008749D0008044A136823B1013B11
:1044B00013600BB9FFF774B8704700BFC824002021
:1044C00008B50B48FFF726FF28B1FFF7D7FFBFF36A
:1044D0004F8F20BFFDE7FFF7C8FF08B1FFF740FF90
:1044E000FFF7BDFF0028F9D0012000F043FC00BF1A
:1044F000082500202DE9FF41464C0E4621688046E4
:10450000C1F34173032B0CBF4D428DB2C1F307437E
:10451000174641482A46FFF795FF6FF498731D44EC
:10452000132D0FD8DFE805F00A585B5E6167646AF7
:104530000E0E0E0E0E0E0E0E0E0E0E6DA1683748EC
:10454000FFF780FF4046FFF739FF61683448FFF707
:1045500079FF4EB13348FFF731FF3046FFF72EFFAA
:1045600039463148FFF76EFFA1683048FFF76AFF10
:1045700023682F4A1A44012A05D92E4A934202D0B1
:10458000033A934241D1A06820B1C06C80F008008A
:10459000C0F3C000E368002B39D05968264A0029CF
:1045A00008BF1146E269254D0392A2690292626931
:1045B000019222690092224A002818BF2A46214807
:1045C000FFF740FF21682048FFF73CFF1F4804B079
:1045D000BDE8F041FFF736BFA1681D48B0E7A1680C
:1045E0001C48ADE7A1681C48AAE7A1681B48A7E7DB
:1045F000A1681B48A4E7A1681A48A1E7A1681A4866
:104600009EE71A48FFF71EFF9CE70020C2E70A4911
:10461000C8E700BF0C250020BA9D00080B9E0008CB
:10462000B39E0008C49E0008CC9E0008D09E0008DF
:10463000C2FE007F4001FF80A59D0008AF9D0008DD
:10464000F89C0008E49E00083D9F00088C9F00082D
:10465000219E0008319E0008409E0008539E0008DD
:10466000679E00087B9E00088A9E0008A09E0008A6
:1046700070470000F0B5294D0E4635EA200528BFE9
:1046800005468FB017460021302202A803F022FC15
:10469000234B01AC2B44012B0195039605D9214BEB
:1046A0009D4202D0033B9D4232D1F36B0293736B68
:1046B00008931D4B5B69DA6B049305925A6B1B6B75
:1046C00006920793FFF7DAFE184A13680133012BAD
:1046D000136009D12646164D0FCE0FC50FCE0FC55C
:1046E0000FCE0FC533682B60124D0FCC0FC50FCC0A
:1046F0000FC50FCC0FC52368A5F130002B600E4B02
:104700001B6843B19847FFF7CFFE00200FB0F0BD04
:1047100002970894CDE7FFF7ABFFF4E70101FF80B4
:10472000C2FE007F4001FF80F4000020CC24002066
:10473000D42400200C250020D02400200FB407B57D
:1047400001210D487546FFF701FE044688B9014670
:104750002A460A48FFF78EFF224621460848FFF7FF
:10476000C9FE049805A90191FFF750FE0548FFF71F
:1047700025FEFFF7A5FE00BF402500200001FF80B9
:10478000A69F0008F79C000800207047014B18788E
:10479000C0B270474025002080B506460C460A4846
:1047A0000121F04617461D46FFF7D0FD48B94246A5
:1047B00039463046FFF75EFF29462046029AFFF74A
:1047C00099FEFFF77DFE00BF4025002013B5074C82
:1047D00001212046FFF7A8FD034628B90090228852
:1047E00003490448FFF7D8FF02B010BD422500205E
:1047F000BB9F00082301048013B5094C012120460A
:10480000FFF79BFD4FF6FF73984206D100232288E5
:10481000044905480093FFF7BFFF02B010BD00BF79
:1048200042250020DD9F000824010480034B1888E6
:1048300080B2B0FA80F04009704700BF42250020E6
:1048400008B5FFF71BFEFFF7F1FF28B102F056F89D
:10485000BDE80840FFF728BE02F03EF8F8E76FF029
:104860001C0070476FF01500704701207047002052
:1048700070477047034B186818B14FF0FF31FDF7D0
:1048800045B8704710240020024B186808B1FDF7A6
:1048900055B8704710240020F8B515460C46064E52
:1048A0008F18BC4205D0304614F8011B00F080FC84
:1048B000F7E72846F8BD00BF1C29002038B511F0E5
:1048C00001048DB205D0084801F02EFE041E18BF69
:1048D0000124EB0605D5044801F03CFE08B144F084
:1048E0001004204638BD00BF1C29002010B5044626
:1048F00003F0DAFA204610BD10B510460C4622B17E
:10490000024800F03FFC2070012010BD1C2900204F
:1049100038B5084B04460360074B15461B6833B98E
:104920000648FFF7F7F82946044801F049FE2046FB
:1049300038BD00BF18A10008682900201C290020EC
:1049400000207047012008B500F014FA074A084912
:1049500013681844884283BF0C22064B4FF0FF3087
:1049600010608CBF1A601846704700BFA00200207C
:10497000004C0020CC290020012070470120704706
:1049800008B5FDF719FD08BD08B5FDF71DFD08BD0B
:1049900010B50446037803F00303012B08D0FFF79A
:1049A00069FF237803F00302012A03D1FFF76CFFAC
:1049B00000200AE02AB140F2A46204490448FFF74B
:1049C0009FFC43F002032370012010BD31A00008BA
:1049D00043A0000808B5037803F00302022A05D0BB
:1049E00040F2AD6206490748FFF78AFC23F0030353
:1049F00043F001030370BDE80840FFF745BF00BF67
:104A000031A0000861A000083F2870B504462EDCE4
:104A1000184E56F820305A1C13D1022811DCFBF72F
:104A2000F7FB034658B92046FFF78AFF034630B923
:104A3000114D2B78BFF35B8FDB0704D50F4B46F886
:104A40002430184670BD2846FFF7A2FF0028F5D095
:104A50004FF416520A490948FFF75AFF2846FFF754
:104A6000B9FF084A08490548FFF786FFE6E7002333
:104A7000E7E700BFA001002044250020C825002052
:104A800060A10008F00000207348000838B5051E3A
:104A900006DA02F071FF092303604FF0FF3038BDE2
:104AA000FFF7B2FF0024084B43F825400028F0D060
:104AB00003685B699847051E04DA02F05DFF6D42EA
:104AC0000560EAE72046EAE7A0010020FFF7DEBF25
:104AD00038B50C461546FFF797FF38B902F04CFF82
:104AE000092303604FF0FF34204638BD0368214698
:104AF0002A46DB689847041EF6DA02F03DFF64425E
:104B00000460EFE738B50C461546FFF77DFF38B96E
:104B100002F032FF092303604FF0FF34204638BD16
:104B2000036821462A469B689847041EF6DA02F07D
:104B300023FF64420460EFE710B5FFF765FF04460A
:104B400028B902F019FF09230360204610BD03684D
:104B5000DB699847041EF8DA02F00EFF6442046035
:104B60000024F2E72DE9F74F06460F469046FFF77F
:104B70007CFC054630B1002332462D492D48009378
:104B8000FFF70AFEFFF76BFC0028F4D0B8F1000F26
:104B900009DA02F0F1FE162303604FF0FF342046DD
:104BA00003B0BDE8F08F3046FFF7C6FF044660B3A0
:104BB0002C46DFF884B0DFF884A01BF80690A845E7
:104BC00023DD7A5D0A2A1CD1B9F10D0F19D0AC4250
:104BD0000BDA30462A1B3919FFF77AFF0028DCDB95
:104BE0000444A542DBDC0BF8069001225146304616
:104BF000FFF76EFF0028D0DBD1D04FF00D030BF88C
:104C0000063017F805900135D9E7A045C7DD3046D5
:104C1000A8EB04023919FFF75BFF0028BDDB24185D
:104C20001FBF3F1917F8012C034B9A55B7E700BF78
:104C300098A000082F01018088250020D2A000083C
:104C4000FFF77ABF7FB504460D461646FFF70DFC09
:104C500030B1002322461E491E480093FFF79CFDF9
:104C6000FFF7FDFB0028F4D0002E06DA02F084FEE8
:104C7000162303604FF0FF3018E02046FFF75CFF7B
:104C8000E8B1154E012220460DF10F01FFF73AFF62
:104C90000028EFDB0AD09DF80F300D2B08D1325DD4
:104CA0000A2A3355EED00A2301202B7004B070BDC0
:104CB0000A2B02D1325D0D2AF3E73355F4E7324671
:104CC0002946204604B0BDE87040FFF71BBF00BF77
:104CD000D4A000082F0101804825002038B50C46DB
:104CE0001546FFF791FE38B902F046FE092303602E
:104CF0004FF0FF34204638BD036821462A461B6921
:104D00009847041EF6DA02F037FE64420460EFE7CB
:104D1000FFF7E4BF10B5FFF777FE30B902F02CFEC5
:104D2000092303604FF0FF3010BD03689B6998476B
:104D3000041E04DA02F020FE64420460F2E7002060
:104D4000F2E7000004460A4D08B52B68986802F0A7
:104D5000D7FE2B68D86802F0D3FE0120FFF7DAFFF8
:104D60000220FFF7D7FF0CB1FFF7FAFAFEE700BF0A
:104D7000AC02002008B5FFF7E5FF38B50D46FFF798
:104D800043FE044630B902F0F7FD092303604FF0FB
:104D9000FF3038BD0368DB699847002814BF4FF423
:104DA00000534FF400436B60236820469B6A98478A
:104DB00028610020EDE7FFF7E0BF03F075B800F0D1
:104DC0007BB870B50446FEF797FE0646FEF78FFEE9
:104DD00005463046FEF78BFE431BA342F9D370BD58
:104DE0001FB5002303620D4B0446002918BF0B4674
:104DF0000093031D02931C2303930B236846019326
:104E0000FCF76CFD206038B9FFF7C0FC20B93D22EB
:104E100003490448FFF774FA04B010BD78A10008F4
:104E2000C4A10008CEA1000810B504460021FFF778
:104E3000D7FF204610BD000037B504464FF0FF31C4
:104E40000068FCF763FD054620B9236A013323623D
:104E500003B030BDFFF79AFC03460028F8D12A467C
:104E6000024903480093FFF797FC00BFF2A1000836
:104E700015010280036A13B5013B03620068FCF769
:104E80005DFD044648B1FFF781FC034628B9009058
:104E9000224603490348FFF77FFC02B010BD00BF64
:104EA00004A200081701028010B504460068FCF750
:104EB0005DFD204610BD000008B538B1FBF7BAFE15
:104EC00020B1E32202490348FFF71AFA08BD00BFE8
:104ED0004AA20008DEA2000870B50024054601269B
:104EE00090B0214601A8CDE9016402F023F9A54262
:104EF0000CBF4FF480334FF4A0230225CDE90734D3
:104F00004FF48033CDE90D534FF4E01306A8069615
:104F10000F9301F039FF80B90F23CDE901354FF42C
:104F200080630390CDE90430294601A802F002F91C
:104F3000B0FA80F0400910B070BD2046FBE70323B3
:104F400030B591B0069301230A9310230024022563
:104F50000B934FF4601306A8CDE90D5407940F93FB
:104F600001F012FF80B90F23CDE901354FF48063C2
:104F70000390CDE90430294601A802F0DBF8B0FA2D
:104F800080F0400911B030BD2046FBE708B5012094
:104F9000FFF7A2FF40B9FFF79FFF28B9FFF7CFFF48
:104FA00010B90248FFF7CAFB08BD00BFE8A400081B
:104FB000002103E00B4B5B58435004310A480B4B74
:104FC00042189A42F6D30A4A02E0002342F8043B10
:104FD000084B9A42F9D302F0A2FCFBF7BBF87047EA
:104FE0007047000010AC0008F000002020030020F3
:104FF00020030020D0290020FEE70000F7B501F0D3
:1050000029FB041E26DB144F57F8240010B3134E5F
:10501000A50173591A68120606D5DB68190603D56F
:105020000F4B01211B68984773591A68920608D5DF
:10503000DB68980605D50A4B00211B6857F8240049
:10504000984773591A68110704D55A69D20744BFA3
:105050005B68019303B0F0BDD8250020E425002053
:10506000D42500200148FFF7C9BF00BF0048004019
:105070000148FFF7C3BF00BF004400400148FFF7ED
:10508000BDBF00BF00380140002808DB01234209F2
:1050900000F01F0003FA00F0014B43F822007047B4
:1050A00000E100E000280DDB0122430900F01F00B1
:1050B00002FA00F0044A203342F82300BFF34F8F76
:1050C000BFF36F8F704700BF00E100E0034B196032
:1050D0004168034B43F82120704700BFD4250020CE
:1050E000D825002030B409C81F4CA04213D1252078
:1050F0001E4C1F4D9B01EB5802B3DA68D9B942F040
:105100002002DA601B4B00F110029B6843F822403A
:1051100030BCFFF7B9BF184CA04206D004F580643C
:10512000A04205D000242046E3E72620134CE0E708
:105130002720134CDDE742F08002E2E7DA6849B944
:1051400022F02002DA60DB6813F0800F09D130BC56
:10515000FFF7A8BF22F08002DA60DB6813F0200FAF
:10516000F4E730BC704700BF003801407D500008B4
:10517000E425002000ED00E00044004071500008EC
:105180006550000838B504464568204601F0CCF962
:105190000028FAD0054BAD015B59E26858680AB99E
:1051A000C0B238BDC0F30800FBE700BFE425002013
:1051B00070B505460C464668284601F0CBF9002834
:1051C000FAD0054BEA68B6019B5912B9E4B25C60AB
:1051D00070BDC4F30804FAE7E42500203B4B70B52A
:1051E0005A69D2072FD59D68394C996805EA04069B
:1051F000AC4308BF012437489A6801EA000108BFA0
:105200009C60814208BF4FF48070304B22F06F42A7
:1052100022F47E0208BF9860120C2F4812048242CA
:1052200004BF4FF480309860294B9E4205D0294B33
:10523000994202D0284B9A4205D1284B284A012195
:105240001B6810689847214BD9685A698E070BD0A4
:10525000950709D55A69002122F002025A611F4BB5
:105260001F4A1B6810689847184B99695A698C0740
:105270005B6909D5900507D5190405D5174B184A60
:1052800005211B6810689847104A9569546915F004
:105290000405526904F4806408D03CB1120405D5B9
:1052A0000E4B0F4A07211B6810689847074B5B6934
:1052B00055B14CB11B0407D5BDE87040074B084AF7
:1052C00002211B681068184770BD00BF00640040D1
:1052D000010000040001000800000110A8260020C1
:1052E000A4260020FFF77ABFFFF778BF044B1960B0
:1052F000044B416C43F821200023C364704700BF76
:10530000A8260020A42600200268416C536923F4DB
:10531000064323F0130353610023024AC36442F897
:1053200021307047A42600200268094B9A420DD113
:1053300003F5D6331A6942F000721A611A6922F035
:1053400000721A61DA6922F00072DA61704700BFF8
:1053500000640040F8B50D46044601F087FF1823AD
:10536000B0FBF5F0B0FBF3F319259BB28608B3420E
:1053700001D30020F8BD01339BB2DF43162103FBAC
:10538000055290422FD001393A44FAD1EFE700F0AC
:1053900085FC801B022823D86368DA07F7D5E26909
:1053A0001E4B1340E361E3692B43E361236823F061
:1053B0000103236000F072FC054604E000F06EFC7F
:1053C000401B022804D86368DB07F7D40120D1E72B
:1053D000A169A2690023124892B2090CFFF7AEF945
:1053E0001048FFF7ABF91048246800EBC10252687F
:1053F00050F831101205090401F4702102F4E002A2
:105400000A43C3F30903134343F08075236843F051
:105410000103236000F042FC0646BDE700FC80FC6F
:10542000E4A500080FA60008C0A6000810B50446B1
:1054300001F0CBFB10B10648FFF780F92046A16CC4
:10544000FFF788FF012801D00248F5E710BD00BF33
:1054500029A600083FA6000884B070B505AC84E812
:105460000E0002680E4693689DF8221058013CD445
:1054700093681B013BD4906810F0805031D0022318
:105480001C0102EB0313D3F880519DF8210005F0B5
:105490000105C3F88051490058BBD3F8800141EAA7
:1054A00046510143C3F88011D3F88411224421F0FE
:1054B0000F01C3F884119DF82010D3F8840101F086
:1054C0000F0101430120C3F884110699C2F8881125
:1054D0000799C2F88C11D3F8802142F00102C3F879
:1054E0008021BDE8704004B070470023C8E7012365
:1054F000C6E7D3F8800140EAC600014341F0040149
:10550000D0E730B5012B4FF000048BB028D80E9DAA
:10551000CDE90554012407949BB949015201CDE915
:105520000013CDE902230023012104930E23CDE9CA
:105530000813694601F0E2FAB0FA80F040090BB0B6
:1055400030BD4B0B0093C900530BD20089B292B20D
:1055500041F0040142F00402019102930392E2E758
:105560002046ECE72DE9FF410F680D46791C044603
:10557000904605D14FF4367226492748FEF7C0FE03
:10558000264B9F4243D1002603F5D633DA69A9683A
:1055900042F00072DA61DB69466403F00073B5F92A
:1055A00004000393039B00F03BFC2969B5F90C0050
:1055B00000F036FC0121B5F9040000F033FD0121B3
:1055C000B5F90C0000F02EFD2B684FF4A0222360EB
:1055D0004FF4E003C4E90423022320466360C4E9D6
:1055E0000666C4E90866C4E90A66C4E90266C4F846
:1055F0004880FFF71BFF2B683246BB4214BF0E23C7
:1056000033463146009320463346FFF77AFF04B015
:10561000BDE8F08198A60008A2A60008006400403A
:105620002DE9F04F0D46DFF860B087B006465946C9
:10563000284614461F46FEF731F8DFF850A0804692
:1056400051462046FEF72AF801464046FEF702F88A
:10565000594681462846FEF737F85146804620468F
:10566000FEF732F83A46059001A93046CDF804908D
:10567000ADF80850CDF80C80ADF81040FFF772FF80
:1056800007B0BDE8F08F00BFF0A2000814A3000827
:1056900030B503681A4DAB421BD1072919D8DFE892
:1056A00001F004191D181822182601230221C364D1
:1056B0001423144CFAB16A691143134A6961926860
:1056C00003F1100142F82140012202FA03F30F4ACC
:1056D000136030BD012113230D4CEBE74FF4004163
:1056E0000C4C1623E6E74FF400710A4CF9E74FF42F
:1056F0008061084CF5E76A6922EA0101DDE700BF35
:1057000000640040DD51000800ED00E000E100E031
:10571000E5520008E952000891FAA1F3B3FA83F3C5
:1057200070B50D0E0F2691FAA1F1B1FA81F144592D
:105730009B0006FA03F3890024EA030402FA01F14C
:105740002143415170BD00007FB5224B04283DD854
:10575000DFE800F003101B2631009A691E4842F072
:1057600004029A619B6903F004030193019B07B053
:105770005DF804FB9A69194842F008029A619B6936
:1057800003F008030293029BF1E79A69144842F080
:1057900010029A619B6903F010030393039BE6E7F1
:1057A0009A69104842F020029A619B6903F0200335
:1057B0000493049BDBE79A690B4842F040029A612C
:1057C0009B6903F040030593059BD0E70748FEF76C
:1057D000B5FF00BF0010024000080140000C01406E
:1057E00000100140001401400018014078A7000893
:1057F000431C10B5044604D1772206490648FEF73B
:105800007FFD4FF4707100F00BFB012004F00F04DA
:10581000A04010BDD2A70008DDA700084B1C70B542
:1058200004460E46018218D0C1F30310FFF78CFF27
:1058300005463046FFF7DCFF238A084A03F00F03D2
:1058400052F823306561A36105F10803636005F137
:10585000100314352060A360E56070BDACA800089B
:10586000B0F9100000F0DEBB03460A46D3E905019B
:1058700012B90822FFF750BF0122FBE74C23214A4F
:105880002DE9F04103FB002205460026944601273E
:105890001D4CDCF8000007FA06F3034229D0536BD5
:1058A000606907FA03F3184223D0D2F81CE0636161
:1058B0005068F0B1E26833EA020203D1A26833EA29
:1058C000020212D1A26833EA020203D1E26833EA8B
:1058D00002020CD1DEF808201A4214BF0121022175
:1058E000BDE8F041094B1B6818470221F8E7012188
:1058F000F6E70136B14202F10402CAD12946044852
:10590000FEF71CFFAC26002000040140C428002044
:10591000F0A7000806210846FFF7B0BF052108469A
:10592000FFF7ACBF01210420FFF7A8BF012103202E
:10593000FFF7A4BF01210220FFF7A0BF0121084605
:10594000FFF79CBF01210020FFF798BF012910B588
:1059500014D18389154C03F00F039940836832B149
:10596000A26843F001031143A160836010BDA268E7
:1059700023F0010322EA0101A160F6E70229F5D133
:1059800081890A4C01F00F030121994083682AB1F3
:10599000E26843F002031143E160E6E7E26823F0C6
:1059A000020322EA0101E160DFE700BF00040140D9
:1059B00070B50F268389B0F90C2003F00C0101F1BA
:1059C000804103F00F0501F5803103F003038C687B
:1059D0009B009E40C2F3031224EA060402FA03F37A
:1059E00023438B6001230F4AAB40116819431160B8
:1059F0008468E50742BF916819439160A10742BFDF
:105A0000D1680B43D36090F90030002B08DB0122F2
:105A1000590903F01F0302FA03F3034A42F8213045
:105A200070BD00BF0004014000E100E02DE9F74F28
:105A300099464B1C05460C46904677D0FEF71EFD56
:105A40003B4B3C499A6904F00F0A42F001029A610B
:105A50000C229B690E8803F001030193019B364BD6
:105A600046FA0AF702FB0A3217F00107D2F804B02F
:105A7000C4F3031002D03148FEF760FE012202FA9F
:105A80000AF232430A80BBF1060F4DD8DFE80BF073
:105A90000440424446484A00294EFFF755FE4FF065
:105AA000000C0C21C5F808C001FB0AF14FF04C0CAA
:105AB000214BAC815A185C5801230CFB0BFC92F96A
:105AC000082020492A7003FA04FE51F80C30C5F86A
:105AD00004B043EA0E0341F80C30132303FB0B44DC
